{
  "_format": "hh-sol-artifact-1",
  "contractName": "bond",
  "sourceName": "contracts/Bond.sol",
  "abi": [
    {
      "inputs": [],
      "stateMutability": "nonpayable",
      "type": "constructor"
    },
    {
      "stateMutability": "payable",
      "type": "fallback"
    },
    {
      "inputs": [],
      "name": "blockOfUser",
      "outputs": [
        {
          "internalType": "uint256",
          "name": "",
          "type": "uint256"
        }
      ],
      "stateMutability": "view",
      "type": "function"
    },
    {
      "inputs": [
        {
          "internalType": "string",
          "name": "_symbol",
          "type": "string"
        },
        {
          "internalType": "address",
          "name": "_token",
          "type": "address"
        },
        {
          "internalType": "uint256",
          "name": "_value",
          "type": "uint256"
        }
      ],
      "name": "borrow",
      "outputs": [],
      "stateMutability": "payable",
      "type": "function"
    },
    {
      "inputs": [
        {
          "internalType": "uint256",
          "name": "_blockSpan",
          "type": "uint256"
        }
      ],
      "name": "changeMinimumBlockSpan",
      "outputs": [],
      "stateMutability": "nonpayable",
      "type": "function"
    },
    {
      "inputs": [
        {
          "internalType": "address",
          "name": "_ownerNew",
          "type": "address"
        }
      ],
      "name": "changeOwner",
      "outputs": [],
      "stateMutability": "nonpayable",
      "type": "function"
    },
    {
      "inputs": [],
      "name": "getLatestPrice",
      "outputs": [
        {
          "internalType": "uint256",
          "name": "",
          "type": "uint256"
        }
      ],
      "stateMutability": "view",
      "type": "function"
    },
    {
      "inputs": [],
      "name": "interestEarned",
      "outputs": [
        {
          "internalType": "uint256",
          "name": "",
          "type": "uint256"
        }
      ],
      "stateMutability": "view",
      "type": "function"
    },
    {
      "inputs": [],
      "name": "lendedAmount",
      "outputs": [
        {
          "internalType": "uint256",
          "name": "",
          "type": "uint256"
        }
      ],
      "stateMutability": "view",
      "type": "function"
    },
    {
      "inputs": [
        {
          "internalType": "address",
          "name": "_token",
          "type": "address"
        },
        {
          "internalType": "uint256",
          "name": "_value",
          "type": "uint256"
        }
      ],
      "name": "repayDept",
      "outputs": [],
      "stateMutability": "payable",
      "type": "function"
    },
    {
      "inputs": [
        {
          "internalType": "uint256",
          "name": "_interest",
          "type": "uint256"
        }
      ],
      "name": "updateInterest",
      "outputs": [],
      "stateMutability": "nonpayable",
      "type": "function"
    },
    {
      "inputs": [
        {
          "internalType": "uint256",
          "name": "_punish",
          "type": "uint256"
        }
      ],
      "name": "updatePunish",
      "outputs": [],
      "stateMutability": "nonpayable",
      "type": "function"
    },
    {
      "inputs": [
        {
          "internalType": "uint256",
          "name": "_timeSpan",
          "type": "uint256"
        }
      ],
      "name": "updateTimeSpan",
      "outputs": [],
      "stateMutability": "nonpayable",
      "type": "function"
    }
  ],
  "bytecode": "0x608060405273150520503ae8b49bfe5efbefafabac86e093715b600560006101000a81548173ffffffffffffffffffffffffffffffffffffffff021916908373ffffffffffffffffffffffffffffffffffffffff16021790555034801561006557600080fd5b5033600160006101000a81548173ffffffffffffffffffffffffffffffffffffffff021916908373ffffffffffffffffffffffffffffffffffffffff160217905550738a753747a1fa494ec906ce90e9f37563a8af630e6000806101000a81548173ffffffffffffffffffffffffffffffffffffffff021916908373ffffffffffffffffffffffffffffffffffffffff160217905550611ea48061010a6000396000f3fe6080604052600436106100a05760003560e01c80639bad23a9116100645780639bad23a91461045f578063a35281e014610488578063a6f9dae1146104b1578063cf88a847146104da578063e6c9852d146104f6578063fb092bba14610512576100a1565b806313a370c61461038a5780631c225df0146103b3578063374261ab146103de57806377e15ab4146104095780638e15f47314610434576100a1565b5b34600f60003373ffffffffffffffffffffffffffffffffffffffff1673ffffffffffffffffffffffffffffffffffffffff1681526020019081526020016000208190555043601060003373ffffffffffffffffffffffffffffffffffffffff1673ffffffffffffffffffffffffffffffffffffffff168152602001908152602001600020819055506000600854141561023257633b9aca0061014161053b565b3461014c9190611b79565b6101569190611b48565b60088190555034601160003373ffffffffffffffffffffffffffffffffffffffff1673ffffffffffffffffffffffffffffffffffffffff16815260200190815260200160002081905550633b9aca006101ad61053b565b346101b89190611b79565b6101c29190611b48565b600e60003373ffffffffffffffffffffffffffffffffffffffff1673ffffffffffffffffffffffffffffffffffffffff16815260200190815260200160002081905550633b9aca0061021261053b565b3461021d9190611b79565b6102279190611b48565b600781905550610388565b600754600854633b9aca0061024561053b565b346102509190611b79565b61025a9190611b48565b6102649190611b79565b61026e9190611b48565b600e60003373ffffffffffffffffffffffffffffffffffffffff1673ffffffffffffffffffffffffffffffffffffffff1681526020019081526020016000208190555034601160003373ffffffffffffffffffffffffffffffffffffffff1673ffffffffffffffffffffffffffffffffffffffff16815260200190815260200160002081905550633b9aca0061030261053b565b3461030d9190611b79565b6103179190611b48565b600760008282546103289190611af2565b92505081905550601160003373ffffffffffffffffffffffffffffffffffffffff1673ffffffffffffffffffffffffffffffffffffffff16815260200190815260200160002054600860008282546103809190611af2565b925050819055505b005b34801561039657600080fd5b506103b160048036038101906103ac9190611836565b6105e9565b005b3480156103bf57600080fd5b506103c8610685565b6040516103d59190611a5a565b60405180910390f35b3480156103ea57600080fd5b506103f36106cc565b6040516104009190611a5a565b60405180910390f35b34801561041557600080fd5b5061041e61079a565b60405161042b9190611a5a565b60405180910390f35b34801561044057600080fd5b5061044961053b565b6040516104569190611a5a565b60405180910390f35b34801561046b57600080fd5b5061048660048036038101906104819190611836565b6107e1565b005b34801561049457600080fd5b506104af60048036038101906104aa9190611836565b61087d565b005b3480156104bd57600080fd5b506104d860048036038101906104d39190611741565b610919565b005b6104f460048036038101906104ef91906117cf565b6109ef565b005b610510600480360381019061050b919061176a565b610e70565b005b34801561051e57600080fd5b5061053960048036038101906105349190611836565b611651565b005b60008060008054906101000a900473ffffffffffffffffffffffffffffffffffffffff1673ffffffffffffffffffffffffffffffffffffffff1663feaf968c6040518163ffffffff1660e01b815260040160a06040518083038186803b1580156105a457600080fd5b505afa1580156105b8573d6000803e3d6000fd5b505050506040513d601f19601f820116820180604052508101906105dc919061185f565b5050509150508091505090565b338073ffffffffffffffffffffffffffffffffffffffff16600160009054906101000a900473ffffffffffffffffffffffffffffffffffffffff1673ffffffffffffffffffffffffffffffffffffffff161461067a576040517f08c379a000000000000000000000000000000000000000000000000000000000815260040161067190611a1a565b60405180910390fd5b81600d819055505050565b6000600f60003373ffffffffffffffffffffffffffffffffffffffff1673ffffffffffffffffffffffffffffffffffffffff16815260200190815260200160002054905090565b600080633b9aca006106dc61053b565b601160003373ffffffffffffffffffffffffffffffffffffffff1673ffffffffffffffffffffffffffffffffffffffff168152602001908152602001600020546107269190611b79565b6107309190611b48565b600754600854600e60003373ffffffffffffffffffffffffffffffffffffffff1673ffffffffffffffffffffffffffffffffffffffff168152602001908152602001600020546107809190611b48565b61078a9190611b79565b6107949190611bd3565b90505090565b6000601060003373ffffffffffffffffffffffffffffffffffffffff1673ffffffffffffffffffffffffffffffffffffffff16815260200190815260200160002054905090565b338073ffffffffffffffffffffffffffffffffffffffff16600160009054906101000a900473ffffffffffffffffffffffffffffffffffffffff1673ffffffffffffffffffffffffffffffffffffffff1614610872576040517f08c379a000000000000000000000000000000000000000000000000000000000815260040161086990611a1a565b60405180910390fd5b81600b819055505050565b338073ffffffffffffffffffffffffffffffffffffffff16600160009054906101000a900473ffffffffffffffffffffffffffffffffffffffff1673ffffffffffffffffffffffffffffffffffffffff161461090e576040517f08c379a000000000000000000000000000000000000000000000000000000000815260040161090590611a1a565b60405180910390fd5b816002819055505050565b338073ffffffffffffffffffffffffffffffffffffffff16600160009054906101000a900473ffffffffffffffffffffffffffffffffffffffff1673ffffffffffffffffffffffffffffffffffffffff16146109aa576040517f08c379a00000000000000000000000000000000000000000000000000000000081526004016109a190611a1a565b60405180910390fd5b81600160006101000a81548173ffffffffffffffffffffffffffffffffffffffff021916908373ffffffffffffffffffffffffffffffffffffffff1602179055505050565b80601260003373ffffffffffffffffffffffffffffffffffffffff1673ffffffffffffffffffffffffffffffffffffffff16815260200190815260200160002060008473ffffffffffffffffffffffffffffffffffffffff1673ffffffffffffffffffffffffffffffffffffffff1681526020019081526020016000206000828254610a7b9190611af2565b9250508190555080601360003373ffffffffffffffffffffffffffffffffffffffff1673ffffffffffffffffffffffffffffffffffffffff16815260200190815260200160002060008473ffffffffffffffffffffffffffffffffffffffff1673ffffffffffffffffffffffffffffffffffffffff1681526020019081526020016000206000828254610b0e9190611af2565b9250508190555081601460003373ffffffffffffffffffffffffffffffffffffffff1673ffffffffffffffffffffffffffffffffffffffff16815260200190815260200160002060006101000a81548173ffffffffffffffffffffffffffffffffffffffff021916908373ffffffffffffffffffffffffffffffffffffffff16021790555042601560003373ffffffffffffffffffffffffffffffffffffffff1673ffffffffffffffffffffffffffffffffffffffff16815260200190815260200160002081905550600560009054906101000a900473ffffffffffffffffffffffffffffffffffffffff1673ffffffffffffffffffffffffffffffffffffffff1663095ea7b333836002610c239190611b79565b6040518363ffffffff1660e01b8152600401610c409291906119f1565b602060405180830381600087803b158015610c5a57600080fd5b505af1158015610c6e573d6000803e3d6000fd5b505050506040513d601f19601f82011682018060405250810190610c9291906117a6565b50600560009054906101000a900473ffffffffffffffffffffffffffffffffffffffff1673ffffffffffffffffffffffffffffffffffffffff166323b872dd3330846040518463ffffffff1660e01b8152600401610cf2939291906119ba565b602060405180830381600087803b158015610d0c57600080fd5b505af1158015610d20573d6000803e3d6000fd5b505050506040513d601f19601f82011682018060405250810190610d4491906117a6565b5080600a6000828254610d579190611af2565b92505081905550806064600954610d6e9190611b48565b610d789190611b79565b600754610d859190611af2565b600781905550604051602001610d9a906119a5565b6040516020818303038152906040528051906020012083604051602001610dc1919061198e565b604051602081830303815290604052805190602001201415610e6b573373ffffffffffffffffffffffffffffffffffffffff166108fc60646009546064610e089190611bd3565b633b9aca00610e1561053b565b610e1f9190611b48565b85610e2a9190611b48565b610e349190611b79565b610e3e9190611b48565b9081150290604051600060405180830381858888f19350505050158015610e69573d6000803e3d6000fd5b505b505050565b600b54601560003373ffffffffffffffffffffffffffffffffffffffff1673ffffffffffffffffffffffffffffffffffffffff1681526020019081526020016000205442610ebe9190611bd3565b11610efe576040517f08c379a0000000000000000000000000000000000000000000000000000000008152600401610ef590611a3a565b60405180910390fd5b600c54601560003373ffffffffffffffffffffffffffffffffffffffff1673ffffffffffffffffffffffffffffffffffffffff1681526020019081526020016000205442610f4c9190611bd3565b101561107357601360003373ffffffffffffffffffffffffffffffffffffffff1673ffffffffffffffffffffffffffffffffffffffff16815260200190815260200160002060008373ffffffffffffffffffffffffffffffffffffffff1673ffffffffffffffffffffffffffffffffffffffff16815260200190815260200160002054600d54610fdc9190611b79565b601360003373ffffffffffffffffffffffffffffffffffffffff1673ffffffffffffffffffffffffffffffffffffffff16815260200190815260200160002060008473ffffffffffffffffffffffffffffffffffffffff1673ffffffffffffffffffffffffffffffffffffffff16815260200190815260200160002060008282546110679190611af2565b9250508190555061164d565b8173ffffffffffffffffffffffffffffffffffffffff1663095ea7b333836040518363ffffffff1660e01b81526004016110ae9291906119f1565b602060405180830381600087803b1580156110c857600080fd5b505af11580156110dc573d6000803e3d6000fd5b505050506040513d601f19601f8201168201806040525081019061110091906117a6565b508173ffffffffffffffffffffffffffffffffffffffff166323b872dd3330846040518463ffffffff1660e01b815260040161113e939291906119ba565b602060405180830381600087803b15801561115857600080fd5b505af115801561116c573d6000803e3d6000fd5b505050506040513d601f19601f8201168201806040525081019061119091906117a6565b5080600a60008282546111a39190611bd3565b92505081905550600081601360003373ffffffffffffffffffffffffffffffffffffffff1673ffffffffffffffffffffffffffffffffffffffff16815260200190815260200160002060008573ffffffffffffffffffffffffffffffffffffffff1673ffffffffffffffffffffffffffffffffffffffff168152602001908152602001600020546112349190611bd3565b14156114fe57600560009054906101000a900473ffffffffffffffffffffffffffffffffffffffff1673ffffffffffffffffffffffffffffffffffffffff1663a9059cbb336064600560095461128a9190611af2565b60646112969190611bd3565b601260003373ffffffffffffffffffffffffffffffffffffffff1673ffffffffffffffffffffffffffffffffffffffff16815260200190815260200160002060008873ffffffffffffffffffffffffffffffffffffffff1673ffffffffffffffffffffffffffffffffffffffff1681526020019081526020016000205461131d9190611b79565b6113279190611b48565b6040518363ffffffff1660e01b81526004016113449291906119f1565b602060405180830381600087803b15801561135e57600080fd5b505af1158015611372573d6000803e3d6000fd5b505050506040513d601f19601f8201168201806040525081019061139691906117a6565b50601360003373ffffffffffffffffffffffffffffffffffffffff1673ffffffffffffffffffffffffffffffffffffffff16815260200190815260200160002060008373ffffffffffffffffffffffffffffffffffffffff1673ffffffffffffffffffffffffffffffffffffffff16815260200190815260200160002060009055601260003373ffffffffffffffffffffffffffffffffffffffff1673ffffffffffffffffffffffffffffffffffffffff16815260200190815260200160002060008373ffffffffffffffffffffffffffffffffffffffff1673ffffffffffffffffffffffffffffffffffffffff16815260200190815260200160002060009055601460003373ffffffffffffffffffffffffffffffffffffffff1673ffffffffffffffffffffffffffffffffffffffff16815260200190815260200160002060006101000a81549073ffffffffffffffffffffffffffffffffffffffff0219169055611592565b80601260003373ffffffffffffffffffffffffffffffffffffffff1673ffffffffffffffffffffffffffffffffffffffff16815260200190815260200160002060008473ffffffffffffffffffffffffffffffffffffffff1673ffffffffffffffffffffffffffffffffffffffff168152602001908152602001600020600082825461158a9190611bd3565b925050819055505b8060646009546115a29190611b48565b6115ac9190611b79565b6007546115b99190611bd3565b6007819055503373ffffffffffffffffffffffffffffffffffffffff166108fc606460095460646115ea9190611bd3565b633b9aca006115f761053b565b6116019190611b48565b8561160c9190611b48565b6116169190611b79565b6116209190611b48565b9081150290604051600060405180830381858888f1935050505015801561164b573d6000803e3d6000fd5b505b5050565b8060098190555050565b600061166e61166984611a9a565b611a75565b90508281526020810184848401111561168657600080fd5b611691848285611c6f565b509392505050565b6000813590506116a881611dfb565b92915050565b6000815190506116bd81611e12565b92915050565b6000815190506116d281611e29565b92915050565b600082601f8301126116e957600080fd5b81356116f984826020860161165b565b91505092915050565b60008135905061171181611e40565b92915050565b60008151905061172681611e40565b92915050565b60008151905061173b81611e57565b92915050565b60006020828403121561175357600080fd5b600061176184828501611699565b91505092915050565b6000806040838503121561177d57600080fd5b600061178b85828601611699565b925050602061179c85828601611702565b9150509250929050565b6000602082840312156117b857600080fd5b60006117c6848285016116ae565b91505092915050565b6000806000606084860312156117e457600080fd5b600084013567ffffffffffffffff8111156117fe57600080fd5b61180a868287016116d8565b935050602061181b86828701611699565b925050604061182c86828701611702565b9150509250925092565b60006020828403121561184857600080fd5b600061185684828501611702565b91505092915050565b600080600080600060a0868803121561187757600080fd5b60006118858882890161172c565b9550506020611896888289016116c3565b94505060406118a788828901611717565b93505060606118b888828901611717565b92505060806118c98882890161172c565b9150509295509295909350565b6118df81611c07565b82525050565b60006118f082611acb565b6118fa8185611ae7565b935061190a818560208601611c7e565b80840191505092915050565b6000611923600383611ae7565b915061192e82611d80565b600382019050919050565b6000611946601783611ad6565b915061195182611da9565b602082019050919050565b6000611969601e83611ad6565b915061197482611dd2565b602082019050919050565b61198881611c4f565b82525050565b600061199a82846118e5565b915081905092915050565b60006119b082611916565b9150819050919050565b60006060820190506119cf60008301866118d6565b6119dc60208301856118d6565b6119e9604083018461197f565b949350505050565b6000604082019050611a0660008301856118d6565b611a13602083018461197f565b9392505050565b60006020820190508181036000830152611a3381611939565b9050919050565b60006020820190508181036000830152611a538161195c565b9050919050565b6000602082019050611a6f600083018461197f565b92915050565b6000611a7f611a90565b9050611a8b8282611cb1565b919050565b6000604051905090565b600067ffffffffffffffff821115611ab557611ab4611d40565b5b611abe82611d6f565b9050602081019050919050565b600081519050919050565b600082825260208201905092915050565b600081905092915050565b6000611afd82611c4f565b9150611b0883611c4f565b9250827fffffffffffffffffffffffffffffffffffffffffffffffffffffffffffffffff03821115611b3d57611b3c611ce2565b5b828201905092915050565b6000611b5382611c4f565b9150611b5e83611c4f565b925082611b6e57611b6d611d11565b5b828204905092915050565b6000611b8482611c4f565b9150611b8f83611c4f565b9250817fffffffffffffffffffffffffffffffffffffffffffffffffffffffffffffffff0483118215151615611bc857611bc7611ce2565b5b828202905092915050565b6000611bde82611c4f565b9150611be983611c4f565b925082821015611bfc57611bfb611ce2565b5b828203905092915050565b6000611c1282611c2f565b9050919050565b60008115159050919050565b6000819050919050565b600073ffffffffffffffffffffffffffffffffffffffff82169050919050565b6000819050919050565b600069ffffffffffffffffffff82169050919050565b82818337600083830152505050565b60005b83811015611c9c578082015181840152602081019050611c81565b83811115611cab576000848401525b50505050565b611cba82611d6f565b810181811067ffffffffffffffff82111715611cd957611cd8611d40565b5b80604052505050565b7f4e487b7100000000000000000000000000000000000000000000000000000000600052601160045260246000fd5b7f4e487b7100000000000000000000000000000000000000000000000000000000600052601260045260246000fd5b7f4e487b7100000000000000000000000000000000000000000000000000000000600052604160045260246000fd5b6000601f19601f8301169050919050565b7f4554480000000000000000000000000000000000000000000000000000000000600082015250565b7f53656e646572206973206e6f7420746865206f776e6572000000000000000000600082015250565b7f54696d65207370616e20686173206e6f74206265656e20726561636865640000600082015250565b611e0481611c07565b8114611e0f57600080fd5b50565b611e1b81611c19565b8114611e2657600080fd5b50565b611e3281611c25565b8114611e3d57600080fd5b50565b611e4981611c4f565b8114611e5457600080fd5b50565b611e6081611c59565b8114611e6b57600080fd5b5056fea2646970667358221220a323975f8d11dcf33c74b318995df5214bcf09dec4b60e4c7937db347aaf089164736f6c63430008040033",
  "linkReferences": {},
  "deployedLinkReferences": {}
}