{
  "_format": "hh-sol-artifact-1",
  "contractName": "bond",
  "sourceName": "contracts/Bond.sol",
  "abi": [
    {
      "inputs": [],
      "stateMutability": "nonpayable",
      "type": "constructor"
    },
    {
      "stateMutability": "payable",
      "type": "fallback"
    },
    {
      "inputs": [],
      "name": "blockOfUser",
      "outputs": [
        {
          "internalType": "uint256",
          "name": "",
          "type": "uint256"
        }
      ],
      "stateMutability": "view",
      "type": "function"
    },
    {
      "inputs": [
        {
          "internalType": "string",
          "name": "_symbol",
          "type": "string"
        },
        {
          "internalType": "address",
          "name": "_token",
          "type": "address"
        },
        {
          "internalType": "uint256",
          "name": "_value",
          "type": "uint256"
        }
      ],
      "name": "borrow",
      "outputs": [],
      "stateMutability": "payable",
      "type": "function"
    },
    {
      "inputs": [
        {
          "internalType": "uint256",
          "name": "_blockSpan",
          "type": "uint256"
        }
      ],
      "name": "changeMinimumBlockSpan",
      "outputs": [],
      "stateMutability": "nonpayable",
      "type": "function"
    },
    {
      "inputs": [
        {
          "internalType": "address",
          "name": "_ownerNew",
          "type": "address"
        }
      ],
      "name": "changeOwner",
      "outputs": [],
      "stateMutability": "nonpayable",
      "type": "function"
    },
    {
      "inputs": [],
      "name": "claimNft",
      "outputs": [],
      "stateMutability": "nonpayable",
      "type": "function"
    },
    {
      "inputs": [
        {
          "internalType": "address",
          "name": "_token",
          "type": "address"
        }
      ],
      "name": "getBorrowedAmount",
      "outputs": [
        {
          "internalType": "uint256",
          "name": "",
          "type": "uint256"
        }
      ],
      "stateMutability": "view",
      "type": "function"
    },
    {
      "inputs": [
        {
          "internalType": "address",
          "name": "_user",
          "type": "address"
        }
      ],
      "name": "getBorrowerTimeStamp",
      "outputs": [
        {
          "internalType": "uint256",
          "name": "",
          "type": "uint256"
        }
      ],
      "stateMutability": "view",
      "type": "function"
    },
    {
      "inputs": [],
      "name": "getLatestPrice",
      "outputs": [
        {
          "internalType": "uint256",
          "name": "",
          "type": "uint256"
        }
      ],
      "stateMutability": "view",
      "type": "function"
    },
    {
      "inputs": [],
      "name": "interestEarned",
      "outputs": [
        {
          "internalType": "uint256",
          "name": "",
          "type": "uint256"
        }
      ],
      "stateMutability": "view",
      "type": "function"
    },
    {
      "inputs": [],
      "name": "lendedAmount",
      "outputs": [
        {
          "internalType": "uint256",
          "name": "",
          "type": "uint256"
        }
      ],
      "stateMutability": "view",
      "type": "function"
    },
    {
      "inputs": [
        {
          "internalType": "address",
          "name": "_token",
          "type": "address"
        },
        {
          "internalType": "uint256",
          "name": "_value",
          "type": "uint256"
        }
      ],
      "name": "repayDept",
      "outputs": [],
      "stateMutability": "payable",
      "type": "function"
    },
    {
      "inputs": [],
      "name": "repayLender",
      "outputs": [],
      "stateMutability": "payable",
      "type": "function"
    },
    {
      "inputs": [
        {
          "internalType": "uint256",
          "name": "_interest",
          "type": "uint256"
        }
      ],
      "name": "updateInterest",
      "outputs": [],
      "stateMutability": "nonpayable",
      "type": "function"
    },
    {
      "inputs": [
        {
          "internalType": "uint256",
          "name": "_punish",
          "type": "uint256"
        }
      ],
      "name": "updatePunish",
      "outputs": [],
      "stateMutability": "nonpayable",
      "type": "function"
    },
    {
      "inputs": [
        {
          "internalType": "uint256",
          "name": "_timeSpan",
          "type": "uint256"
        }
      ],
      "name": "updateTimeSpan",
      "outputs": [],
      "stateMutability": "nonpayable",
      "type": "function"
    },
    {
      "stateMutability": "payable",
      "type": "receive"
    }
  ],
  "bytecode": "0x6080604052608060055573150520503ae8b49bfe5efbefafabac86e093715b600660006101000a81548173ffffffffffffffffffffffffffffffffffffffff021916908373ffffffffffffffffffffffffffffffffffffffff16021790555034801561006a57600080fd5b5033600160006101000a81548173ffffffffffffffffffffffffffffffffffffffff021916908373ffffffffffffffffffffffffffffffffffffffff160217905550738a753747a1fa494ec906ce90e9f37563a8af630e6000806101000a81548173ffffffffffffffffffffffffffffffffffffffff021916908373ffffffffffffffffffffffffffffffffffffffff1602179055506127b48061010f6000396000f3fe6080604052600436106100ec5760003560e01c80639890b1431161008a578063b9f2c7b511610059578063b9f2c7b51461074e578063cf88a8471461078b578063e6c9852d146107a7578063fb092bba146107c35761059e565b80639890b143146106965780639bad23a9146106d3578063a35281e0146106fc578063a6f9dae1146107255761059e565b8063374261ab116100c6578063374261ab146105fe5780635ae2afa41461062957806377e15ab4146106405780638e15f4731461066b5761059e565b80630a283adf146105a057806313a370c6146105aa5780631c225df0146105d35761059e565b3661059e5734601160003373ffffffffffffffffffffffffffffffffffffffff1673ffffffffffffffffffffffffffffffffffffffff1681526020019081526020016000208190555043601260003373ffffffffffffffffffffffffffffffffffffffff1673ffffffffffffffffffffffffffffffffffffffff16815260200190815260200160002081905550600060095414156102895734600f81905550633b9aca006101986107ec565b346101a39190612460565b6101ad919061242f565b60098190555034601360003373ffffffffffffffffffffffffffffffffffffffff1673ffffffffffffffffffffffffffffffffffffffff16815260200190815260200160002081905550633b9aca006102046107ec565b3461020f9190612460565b610219919061242f565b601060003373ffffffffffffffffffffffffffffffffffffffff1673ffffffffffffffffffffffffffffffffffffffff16815260200190815260200160002081905550633b9aca006102696107ec565b346102749190612460565b61027e919061242f565b6008819055506103f8565b34600f600082825461029b91906123d9565b92505081905550600854600954633b9aca006102b56107ec565b346102c09190612460565b6102ca919061242f565b6102d49190612460565b6102de919061242f565b601060003373ffffffffffffffffffffffffffffffffffffffff1673ffffffffffffffffffffffffffffffffffffffff1681526020019081526020016000208190555034601360003373ffffffffffffffffffffffffffffffffffffffff1673ffffffffffffffffffffffffffffffffffffffff16815260200190815260200160002081905550633b9aca006103726107ec565b3461037d9190612460565b610387919061242f565b6008600082825461039891906123d9565b92505081905550601360003373ffffffffffffffffffffffffffffffffffffffff1673ffffffffffffffffffffffffffffffffffffffff16815260200190815260200160002054600960008282546103f091906123d9565b925050819055505b600660009054906101000a900473ffffffffffffffffffffffffffffffffffffffff1673ffffffffffffffffffffffffffffffffffffffff1663095ea7b330633b9aca006104446107ec565b3461044f9190612460565b610459919061242f565b6040518363ffffffff1660e01b81526004016104769291906122b8565b602060405180830381600087803b15801561049057600080fd5b505af11580156104a4573d6000803e3d6000fd5b505050506040513d601f19601f820116820180604052508101906104c8919061202f565b50600660009054906101000a900473ffffffffffffffffffffffffffffffffffffffff1673ffffffffffffffffffffffffffffffffffffffff166323b872dd3033633b9aca006105166107ec565b346105219190612460565b61052b919061242f565b6040518463ffffffff1660e01b815260040161054993929190612281565b602060405180830381600087803b15801561056357600080fd5b505af1158015610577573d6000803e3d6000fd5b505050506040513d601f19601f8201168201806040525081019061059b919061202f565b50005b005b6105a861089a565b005b3480156105b657600080fd5b506105d160048036038101906105cc91906120bf565b610cba565b005b3480156105df57600080fd5b506105e8610d56565b6040516105f59190612341565b60405180910390f35b34801561060a57600080fd5b50610613610d9d565b6040516106209190612341565b60405180910390f35b34801561063557600080fd5b5061063e610e6b565b005b34801561064c57600080fd5b50610655610f47565b6040516106629190612341565b60405180910390f35b34801561067757600080fd5b506106806107ec565b60405161068d9190612341565b60405180910390f35b3480156106a257600080fd5b506106bd60048036038101906106b89190611fca565b610f8e565b6040516106ca9190612341565b60405180910390f35b3480156106df57600080fd5b506106fa60048036038101906106f591906120bf565b610fd7565b005b34801561070857600080fd5b50610723600480360381019061071e91906120bf565b611073565b005b34801561073157600080fd5b5061074c60048036038101906107479190611fca565b61110f565b005b34801561075a57600080fd5b5061077560048036038101906107709190611fca565b6111e5565b6040516107829190612341565b60405180910390f35b6107a560048036038101906107a09190612058565b61126b565b005b6107c160048036038101906107bc9190611ff3565b6116f9565b005b3480156107cf57600080fd5b506107ea60048036038101906107e591906120bf565b611eda565b005b60008060008054906101000a900473ffffffffffffffffffffffffffffffffffffffff1673ffffffffffffffffffffffffffffffffffffffff1663feaf968c6040518163ffffffff1660e01b815260040160a06040518083038186803b15801561085557600080fd5b505afa158015610869573d6000803e3d6000fd5b505050506040513d601f19601f8201168201806040525081019061088d91906120e8565b5050509150508091505090565b600554601260003373ffffffffffffffffffffffffffffffffffffffff1673ffffffffffffffffffffffffffffffffffffffff168152602001908152602001600020546108e791906123d9565b421115610cb857601360003373ffffffffffffffffffffffffffffffffffffffff1673ffffffffffffffffffffffffffffffffffffffff16815260200190815260200160002054600f5411610971576040517f08c379a0000000000000000000000000000000000000000000000000000000008152600401610968906122e1565b60405180910390fd5b6000601160003373ffffffffffffffffffffffffffffffffffffffff1673ffffffffffffffffffffffffffffffffffffffff1681526020019081526020016000208190555043601260003373ffffffffffffffffffffffffffffffffffffffff1673ffffffffffffffffffffffffffffffffffffffff16815260200190815260200160002081905550601360003373ffffffffffffffffffffffffffffffffffffffff1673ffffffffffffffffffffffffffffffffffffffff1681526020019081526020016000205460096000828254610a4b91906124ba565b92505081905550601060003373ffffffffffffffffffffffffffffffffffffffff1673ffffffffffffffffffffffffffffffffffffffff1681526020019081526020016000205460086000828254610aa391906124ba565b925050819055503373ffffffffffffffffffffffffffffffffffffffff166108fc6064600a546064610ad591906124ba565b633b9aca00610ae26107ec565b610aec919061242f565b601360003373ffffffffffffffffffffffffffffffffffffffff1673ffffffffffffffffffffffffffffffffffffffff16815260200190815260200160002054610b36919061242f565b610b409190612460565b610b4a919061242f565b9081150290604051600060405180830381858888f19350505050158015610b75573d6000803e3d6000fd5b50601360003373ffffffffffffffffffffffffffffffffffffffff1673ffffffffffffffffffffffffffffffffffffffff16815260200190815260200160002054600f6000828254610bc791906124ba565b925050819055506000600954600854601060003373ffffffffffffffffffffffffffffffffffffffff1673ffffffffffffffffffffffffffffffffffffffff16815260200190815260200160002054610c209190612460565b610c2a919061242f565b90506000601060003373ffffffffffffffffffffffffffffffffffffffff1673ffffffffffffffffffffffffffffffffffffffff168152602001908152602001600020819055506000601360003373ffffffffffffffffffffffffffffffffffffffff1673ffffffffffffffffffffffffffffffffffffffff16815260200190815260200160002081905550505b565b338073ffffffffffffffffffffffffffffffffffffffff16600160009054906101000a900473ffffffffffffffffffffffffffffffffffffffff1673ffffffffffffffffffffffffffffffffffffffff1614610d4b576040517f08c379a0000000000000000000000000000000000000000000000000000000008152600401610d4290612301565b60405180910390fd5b81600e819055505050565b6000601160003373ffffffffffffffffffffffffffffffffffffffff1673ffffffffffffffffffffffffffffffffffffffff16815260200190815260200160002054905090565b600080633b9aca00610dad6107ec565b601360003373ffffffffffffffffffffffffffffffffffffffff1673ffffffffffffffffffffffffffffffffffffffff16815260200190815260200160002054610df79190612460565b610e01919061242f565b600854600954601060003373ffffffffffffffffffffffffffffffffffffffff1673ffffffffffffffffffffffffffffffffffffffff16815260200190815260200160002054610e51919061242f565b610e5b9190612460565b610e6591906124ba565b90505090565b600554601260003373ffffffffffffffffffffffffffffffffffffffff1673ffffffffffffffffffffffffffffffffffffffff16815260200190815260200160002054610eb891906123d9565b431115610f4557600073091a51142d3e3da42997906cf83cbf40fbae6ba790508073ffffffffffffffffffffffffffffffffffffffff16636a627842336040518263ffffffff1660e01b8152600401610f119190612266565b600060405180830381600087803b158015610f2b57600080fd5b505af1158015610f3f573d6000803e3d6000fd5b50505050505b565b6000601260003373ffffffffffffffffffffffffffffffffffffffff1673ffffffffffffffffffffffffffffffffffffffff16815260200190815260200160002054905090565b6000601760003373ffffffffffffffffffffffffffffffffffffffff1673ffffffffffffffffffffffffffffffffffffffff168152602001908152602001600020549050919050565b338073ffffffffffffffffffffffffffffffffffffffff16600160009054906101000a900473ffffffffffffffffffffffffffffffffffffffff1673ffffffffffffffffffffffffffffffffffffffff1614611068576040517f08c379a000000000000000000000000000000000000000000000000000000000815260040161105f90612301565b60405180910390fd5b81600c819055505050565b338073ffffffffffffffffffffffffffffffffffffffff16600160009054906101000a900473ffffffffffffffffffffffffffffffffffffffff1673ffffffffffffffffffffffffffffffffffffffff1614611104576040517f08c379a00000000000000000000000000000000000000000000000000000000081526004016110fb90612301565b60405180910390fd5b816002819055505050565b338073ffffffffffffffffffffffffffffffffffffffff16600160009054906101000a900473ffffffffffffffffffffffffffffffffffffffff1673ffffffffffffffffffffffffffffffffffffffff16146111a0576040517f08c379a000000000000000000000000000000000000000000000000000000000815260040161119790612301565b60405180910390fd5b81600160006101000a81548173ffffffffffffffffffffffffffffffffffffffff021916908373ffffffffffffffffffffffffffffffffffffffff1602179055505050565b6000601460003373ffffffffffffffffffffffffffffffffffffffff1673ffffffffffffffffffffffffffffffffffffffff16815260200190815260200160002060008373ffffffffffffffffffffffffffffffffffffffff1673ffffffffffffffffffffffffffffffffffffffff168152602001908152602001600020549050919050565b80601460003373ffffffffffffffffffffffffffffffffffffffff1673ffffffffffffffffffffffffffffffffffffffff16815260200190815260200160002060008473ffffffffffffffffffffffffffffffffffffffff1673ffffffffffffffffffffffffffffffffffffffff16815260200190815260200160002060008282546112f791906123d9565b9250508190555080601560003373ffffffffffffffffffffffffffffffffffffffff1673ffffffffffffffffffffffffffffffffffffffff16815260200190815260200160002060008473ffffffffffffffffffffffffffffffffffffffff1673ffffffffffffffffffffffffffffffffffffffff168152602001908152602001600020600082825461138a91906123d9565b9250508190555081601660003373ffffffffffffffffffffffffffffffffffffffff1673ffffffffffffffffffffffffffffffffffffffff16815260200190815260200160002060006101000a81548173ffffffffffffffffffffffffffffffffffffffff021916908373ffffffffffffffffffffffffffffffffffffffff16021790555042601760003373ffffffffffffffffffffffffffffffffffffffff1673ffffffffffffffffffffffffffffffffffffffff16815260200190815260200160002081905550600660009054906101000a900473ffffffffffffffffffffffffffffffffffffffff1673ffffffffffffffffffffffffffffffffffffffff1663095ea7b333836040518363ffffffff1660e01b81526004016114b09291906122b8565b602060405180830381600087803b1580156114ca57600080fd5b505af11580156114de573d6000803e3d6000fd5b505050506040513d601f19601f82011682018060405250810190611502919061202f565b50600660009054906101000a900473ffffffffffffffffffffffffffffffffffffffff1673ffffffffffffffffffffffffffffffffffffffff166323b872dd3330846040518463ffffffff1660e01b815260040161156293929190612281565b602060405180830381600087803b15801561157c57600080fd5b505af1158015611590573d6000803e3d6000fd5b505050506040513d601f19601f820116820180604052508101906115b4919061202f565b5080600b60008282546115c791906123d9565b92505081905550806064600a546115de919061242f565b6115e89190612460565b6008546115f591906123d9565b60088190555060405160200161160a90612251565b6040516020818303038152906040528051906020012083604051602001611631919061223a565b6040516020818303038152906040528051906020012014156116f45780600f600082825461165f91906124ba565b925050819055503373ffffffffffffffffffffffffffffffffffffffff166108fc6064600a54606461169191906124ba565b633b9aca0061169e6107ec565b6116a8919061242f565b856116b3919061242f565b6116bd9190612460565b6116c7919061242f565b9081150290604051600060405180830381858888f193505050501580156116f2573d6000803e3d6000fd5b505b505050565b600c54601760003373ffffffffffffffffffffffffffffffffffffffff1673ffffffffffffffffffffffffffffffffffffffff168152602001908152602001600020544261174791906124ba565b11611787576040517f08c379a000000000000000000000000000000000000000000000000000000000815260040161177e90612321565b60405180910390fd5b600d54601760003373ffffffffffffffffffffffffffffffffffffffff1673ffffffffffffffffffffffffffffffffffffffff16815260200190815260200160002054426117d591906124ba565b10156118fc57601560003373ffffffffffffffffffffffffffffffffffffffff1673ffffffffffffffffffffffffffffffffffffffff16815260200190815260200160002060008373ffffffffffffffffffffffffffffffffffffffff1673ffffffffffffffffffffffffffffffffffffffff16815260200190815260200160002054600e546118659190612460565b601560003373ffffffffffffffffffffffffffffffffffffffff1673ffffffffffffffffffffffffffffffffffffffff16815260200190815260200160002060008473ffffffffffffffffffffffffffffffffffffffff1673ffffffffffffffffffffffffffffffffffffffff16815260200190815260200160002060008282546118f091906123d9565b92505081905550611ed6565b8173ffffffffffffffffffffffffffffffffffffffff1663095ea7b333836040518363ffffffff1660e01b81526004016119379291906122b8565b602060405180830381600087803b15801561195157600080fd5b505af1158015611965573d6000803e3d6000fd5b505050506040513d601f19601f82011682018060405250810190611989919061202f565b508173ffffffffffffffffffffffffffffffffffffffff166323b872dd3330846040518463ffffffff1660e01b81526004016119c793929190612281565b602060405180830381600087803b1580156119e157600080fd5b505af11580156119f5573d6000803e3d6000fd5b505050506040513d601f19601f82011682018060405250810190611a19919061202f565b5080600b6000828254611a2c91906124ba565b92505081905550600081601560003373ffffffffffffffffffffffffffffffffffffffff1673ffffffffffffffffffffffffffffffffffffffff16815260200190815260200160002060008573ffffffffffffffffffffffffffffffffffffffff1673ffffffffffffffffffffffffffffffffffffffff16815260200190815260200160002054611abd91906124ba565b1415611d8757600660009054906101000a900473ffffffffffffffffffffffffffffffffffffffff1673ffffffffffffffffffffffffffffffffffffffff1663a9059cbb3360646005600a54611b1391906123d9565b6064611b1f91906124ba565b601460003373ffffffffffffffffffffffffffffffffffffffff1673ffffffffffffffffffffffffffffffffffffffff16815260200190815260200160002060008873ffffffffffffffffffffffffffffffffffffffff1673ffffffffffffffffffffffffffffffffffffffff16815260200190815260200160002054611ba69190612460565b611bb0919061242f565b6040518363ffffffff1660e01b8152600401611bcd9291906122b8565b602060405180830381600087803b158015611be757600080fd5b505af1158015611bfb573d6000803e3d6000fd5b505050506040513d601f19601f82011682018060405250810190611c1f919061202f565b50601560003373ffffffffffffffffffffffffffffffffffffffff1673ffffffffffffffffffffffffffffffffffffffff16815260200190815260200160002060008373ffffffffffffffffffffffffffffffffffffffff1673ffffffffffffffffffffffffffffffffffffffff16815260200190815260200160002060009055601460003373ffffffffffffffffffffffffffffffffffffffff1673ffffffffffffffffffffffffffffffffffffffff16815260200190815260200160002060008373ffffffffffffffffffffffffffffffffffffffff1673ffffffffffffffffffffffffffffffffffffffff16815260200190815260200160002060009055601660003373ffffffffffffffffffffffffffffffffffffffff1673ffffffffffffffffffffffffffffffffffffffff16815260200190815260200160002060006101000a81549073ffffffffffffffffffffffffffffffffffffffff0219169055611e1b565b80601460003373ffffffffffffffffffffffffffffffffffffffff1673ffffffffffffffffffffffffffffffffffffffff16815260200190815260200160002060008473ffffffffffffffffffffffffffffffffffffffff1673ffffffffffffffffffffffffffffffffffffffff1681526020019081526020016000206000828254611e1391906124ba565b925050819055505b806064600a54611e2b919061242f565b611e359190612460565b600854611e4291906124ba565b6008819055503373ffffffffffffffffffffffffffffffffffffffff166108fc6064600a546064611e7391906124ba565b633b9aca00611e806107ec565b611e8a919061242f565b85611e95919061242f565b611e9f9190612460565b611ea9919061242f565b9081150290604051600060405180830381858888f19350505050158015611ed4573d6000803e3d6000fd5b505b5050565b80600a8190555050565b6000611ef7611ef284612381565b61235c565b905082815260208101848484011115611f0f57600080fd5b611f1a848285612556565b509392505050565b600081359050611f318161270b565b92915050565b600081519050611f4681612722565b92915050565b600081519050611f5b81612739565b92915050565b600082601f830112611f7257600080fd5b8135611f82848260208601611ee4565b91505092915050565b600081359050611f9a81612750565b92915050565b600081519050611faf81612750565b92915050565b600081519050611fc481612767565b92915050565b600060208284031215611fdc57600080fd5b6000611fea84828501611f22565b91505092915050565b6000806040838503121561200657600080fd5b600061201485828601611f22565b925050602061202585828601611f8b565b9150509250929050565b60006020828403121561204157600080fd5b600061204f84828501611f37565b91505092915050565b60008060006060848603121561206d57600080fd5b600084013567ffffffffffffffff81111561208757600080fd5b61209386828701611f61565b93505060206120a486828701611f22565b92505060406120b586828701611f8b565b9150509250925092565b6000602082840312156120d157600080fd5b60006120df84828501611f8b565b91505092915050565b600080600080600060a0868803121561210057600080fd5b600061210e88828901611fb5565b955050602061211f88828901611f4c565b945050604061213088828901611fa0565b935050606061214188828901611fa0565b925050608061215288828901611fb5565b9150509295509295909350565b612168816124ee565b82525050565b6000612179826123b2565b61218381856123ce565b9350612193818560208601612565565b80840191505092915050565b60006121ac6012836123bd565b91506121b782612667565b602082019050919050565b60006121cf6003836123ce565b91506121da82612690565b600382019050919050565b60006121f26017836123bd565b91506121fd826126b9565b602082019050919050565b6000612215601e836123bd565b9150612220826126e2565b602082019050919050565b61223481612536565b82525050565b6000612246828461216e565b915081905092915050565b600061225c826121c2565b9150819050919050565b600060208201905061227b600083018461215f565b92915050565b6000606082019050612296600083018661215f565b6122a3602083018561215f565b6122b0604083018461222b565b949350505050565b60006040820190506122cd600083018561215f565b6122da602083018461222b565b9392505050565b600060208201905081810360008301526122fa8161219f565b9050919050565b6000602082019050818103600083015261231a816121e5565b9050919050565b6000602082019050818103600083015261233a81612208565b9050919050565b6000602082019050612356600083018461222b565b92915050565b6000612366612377565b90506123728282612598565b919050565b6000604051905090565b600067ffffffffffffffff82111561239c5761239b612627565b5b6123a582612656565b9050602081019050919050565b600081519050919050565b600082825260208201905092915050565b600081905092915050565b60006123e482612536565b91506123ef83612536565b9250827fffffffffffffffffffffffffffffffffffffffffffffffffffffffffffffffff03821115612424576124236125c9565b5b828201905092915050565b600061243a82612536565b915061244583612536565b925082612455576124546125f8565b5b828204905092915050565b600061246b82612536565b915061247683612536565b9250817fffffffffffffffffffffffffffffffffffffffffffffffffffffffffffffffff04831182151516156124af576124ae6125c9565b5b828202905092915050565b60006124c582612536565b91506124d083612536565b9250828210156124e3576124e26125c9565b5b828203905092915050565b60006124f982612516565b9050919050565b60008115159050919050565b6000819050919050565b600073ffffffffffffffffffffffffffffffffffffffff82169050919050565b6000819050919050565b600069ffffffffffffffffffff82169050919050565b82818337600083830152505050565b60005b83811015612583578082015181840152602081019050612568565b83811115612592576000848401525b50505050565b6125a182612656565b810181811067ffffffffffffffff821117156125c0576125bf612627565b5b80604052505050565b7f4e487b7100000000000000000000000000000000000000000000000000000000600052601160045260246000fd5b7f4e487b7100000000000000000000000000000000000000000000000000000000600052601260045260246000fd5b7f4e487b7100000000000000000000000000000000000000000000000000000000600052604160045260246000fd5b6000601f19601f8301169050919050565b7f4e6f7420656e6f7567682062616c616e63650000000000000000000000000000600082015250565b7f4554480000000000000000000000000000000000000000000000000000000000600082015250565b7f53656e646572206973206e6f7420746865206f776e6572000000000000000000600082015250565b7f54696d65207370616e20686173206e6f74206265656e20726561636865640000600082015250565b612714816124ee565b811461271f57600080fd5b50565b61272b81612500565b811461273657600080fd5b50565b6127428161250c565b811461274d57600080fd5b50565b61275981612536565b811461276457600080fd5b50565b61277081612540565b811461277b57600080fd5b5056fea2646970667358221220b1baf11479bec8cc23540917a520fdf83c7e678c3c4b48e7ce197b3d6214d69c64736f6c63430008040033",
  "linkReferences": {},
  "deployedLinkReferences": {}
}